:060030000121000139006E
:10035100439860438E01439810439A40439A107525
:100361009CF8438E105398FC539AFC43A81043AF5A
:050371000143A88022F9
:0C001500C202D29B8F993002FDC2022271
:0A002600C2038F9B3003FDC20322CA
:0602EB008B0E8A0F891042
:1002F100E4FFEFC39D502BAB0EAA0FA9108F82759F
:100301008300120324FE7400253AF582E43400F5DB
:1003110083EEF0053AE53AC394144003E4F53A0F4D
:0203210080D08A
:0103230022B7
:0E02A4007521007B007A00793EE5222402FDE0
:0602B2008B0B8A0C890D84
:1002B800E4FFEFC39D502BAB0BAA0CA90D8F8275E1
:1002C8008300120324FE7414253BF582E43400F500
:1002D80083EEF0053BE53BC394144003E4F53B0F84
:0202E80080D0C4
:0102EA0022F1
:1001FA00E53A6537604E74012537F582E43400F537
:10020A0083E02402FEE4FDEDC39E503874002537D6
:10021A00F582E43400F583E0FF12001574002537F7
:10022A00F582E43400F583E0FF74282DF582E43486
:10023A0000F583EFF00537E537C394144003E4F57E
:04024A00370D80C329
:01024E00228D
:10024F00E53B6538604E74152538F582E43400F5CA
:10025F0083E02402FEE4FDEDC39E5038741425386C
:10026F00F582E43400F583E0FF120026741425387C
:10027F00F582E43400F583E0FF74282DF582E43431
:10028F0000F583EFF00538E538C394144003E4F527
:04029F00380D80C3D3
:0102A3002238
:10000300E4F539F521F5221203511201FA12024FD8
:0200130080F873
:030023000200DDFB
:1000DD00C0E0C083C082C0D075D000C000C001C0D8
:1000ED0002C003C004C005C006C007309853C298B3
:1000FD00859939E521C394015006743E2521800A66
:10010D00E521B4010C853922243EF8A6390521805C
:10011D0030E5222402FFE433FEC3E5219FEE648027
:10012D00F8748098501B743E2521F8A63905217C62
:10013D0000EFB5210CECB506081202A4752200D211
:10014D0000309904C299D202D007D006D005D00450
:10015D00D003D002D001D000D0D0D082D083D0E057
:01016D00325F
:0300430002004672
:10004600C0E0C083C082C0D075D000C000C001C06F
:1000560002C003C004C005C006C007E59A30E054DC
:10006600539AFE859B39E521C394015006743E25BB
:1000760021800AE521B4010C853922243EF8A639EF
:1000860005218030E5222402FFE433FEC3E5219FEB
:10009600EE6480F8748098501B743E2521F8A639CA
:1000A60005217C00EFB5210CECB506081202A475FB
:1000B6002200D201E59A30E105539AFDD203D0071A
:1000C600D006D005D004D003D002D001D000D0D0C5
:0700D600D082D083D0E0329C
:0300000002016E8C
:0C016E00787FE4F6D8FD7581650201B5CC
:10032400BB010CE58229F582E5833AF583E022508E
:1003340006E92582F8E622BBFE06E92582F8E222D8
:0D034400E58229F582E5833AF583E49322F2
:10017A00020003E493A3F8E493A34003F68001F298
:10018A0008DFF48029E493A3F85407240CC8C33386
:10019A00C4540F4420C8834004F456800146F6DF55
:1001AA00E4800B0102040810204080900030E47EB5
:1001BA00019360BCA3FF543F30E509541FFEE4934A
:1001CA00A360010ECF54C025E060A840B8E493A311
:1001DA00FAE493A3F8E493A3C8C582C8CAC583CA3C
:1001EA00F0A3C8C582C8CAC583CADFE9DEE780BEF4
:0100360000C9
:00000001FF
